:020000040000FA
:04000000A3EF7DF0FD
:10FAA800800F810F820F830F840F890F8A0F8B0FAE
:10FAB8008C0F8D0F920F930F940F950F960F0A12BC
:10FAC8001A222A323A022FC0D9FF30C0DAFFDF30BB
:10FAD800E832E832070B276E000E286E2FC0D9FFD8
:10FAE80030C0DAFFDF50070B6CEC7EF012002FC03D
:10FAF800D9FF30C0DAFFDF30E832E832070B276E73
:10FB0800010E286E2FC0D9FF30C0DAFFDF50070B77
:10FB18006CEC7EF0120031C0D9FF32C0DAFFDF3062
:10FB2800E832E832070B276E31C0D9FF32C0DAFF5E
:10FB3800DF50070BE0EC7DF0336E33501200A80E57
:10FB4800F66EFA0EF76E000EF86E00EE01F010EE8B
:10FB580026F00900F5CFEEFFE550E150FAE13F6AE3
:10FB6800000EF86E0001C8EF7EF02FC0D9FF30C03C
:10FB7800DAFFDF30E832E832070B276E000E286E16
:10FB88002FC0D9FF30C0DAFFDF50070B10EC7EF032
:10FB98002FC0D9FF30C0DAFFDF30E832E832070B78
:10FBA800276E000E286E2FC0D9FF30C0DAFFDF5055
:10FBB800070B6CEC7EF012002F6E27C028F02F5038
:10FBC800020D010EF324D96E000EF420DA6EDECF9A
:10FBD80029F0DDCF2AF029C0D9FF2AC0DAFFDF508B
:10FBE8002B6E27C02CF0010E2D6E2C2AFEEF7DF017
:10FBF800D8902D362C2EFCEF7DF02D502B142E6E28
:10FC0800282A09EF7EF0D8902E32282E07EF7EF0B2
:10FC18002E50306E305012002E6E56EF7EF027C0F8
:10FC280029F0010E2A6E292A1CEF7EF0D8902A3678
:10FC3800292E1AEF7EF02A50FF0A2B6E2E50020D45
:10FC4800150EF324D96E000EF420DA6EDECF2CF0F8
:10FC5800DDCF2DF02CC0D9FF2DC0DAFF2B50DF16D9
:10FC68006BEF7EF027C029F0010E2A6E292A3FEF9C
:10FC78007EF0D8902A36292E3DEF7EF02E50020DC8
:10FC8800150EF324D96E000EF420DA6EDECF2BF0B9
:10FC9800DDCF2CF02BC0D9FF2CC0DAFF2A50DF12A1
:10FCA8006BEF7EF02850296E2A6A2A50000AD8B4D1
:10FCB80060EF7EF06BEF7EF02950000AD8B413EFA6
:10FCC8007EF0010AD8B436EF7EF06BEF7EF01200BA
:10FCD8002E6EB2EF7EF027C029F0010E2A6E292A77
:10FCE80078EF7EF0D8902A36292E76EF7EF02A50CB
:10FCF800FF0A2B6E2E50020D0B0EF324D96E000E48
:10FD0800F420DA6EDECF2CF0DDCF2DF02CC0D9FF39
:10FD18002DC0DAFF2B50DF16C7EF7EF027C029F081
:10FD2800010E2A6E292A9BEF7EF0D8902A36292EBA
:10FD380099EF7EF02E50020D0B0EF324D96E000EB3
:10FD4800F420DA6EDECF2BF0DDCF2CF02BC0D9FFFC
:10FD58002CC0DAFF2A50DF12C7EF7EF02850296E38
:10FD68002A6A2A50000AD8B4BCEF7EF0C7EF7EF0AA
:10FD78002950000AD8B46FEF7EF0010AD8B492EF88
:10FD88007EF0C7EF7EF01200000E3C6E000E3B6E58
:10FD98001F0E3B242F6E000E3C20306EB9EC7DF018
:10FDA8003B4A3C2A3CBEE2EF7EF03C5009E1030EA0
:10FDB8003B5CD8A0E2EF7EF0E4EF7EF0CCEF7EF083
:10FDC800000E3E6E010E3D6E260E316E000E326E36
:10FDD8008FEC7DF0366E3604D8A4F5EF7EF0F7EFA1
:10FDE8007EF0E8EF7EF03D043E10D8A4FEEF7EF0F2
:10FDF80000EF7FF026EF7FF01F0E2F6E000E306EA3
:10FE08007BEC7DF0030E356E8A0E346E560EE82EAE
:10FE1800FED7342EFCD7352EFAD71F0E2F6E000EC4
:10FE2800306E67EC7DF0030E356E8A0E346E560E1A
:10FE3800E82EFED7342EFCD7352EFAD73D4A3E2A77
:10FE4800E8EF7EF0020E3D183E10D8A42EEF7FF0AA
:10FE580030EF7FF068EF7FF0000E386E000E376EDF
:10FE6800200E2F6E000E306E7BEC7DF0030E356E8B
:10FE78008A0E346E560EE82EFED7342EFCD7352E59
:10FE8800FAD7200E2F6E000E306E67EC7DF0030E51
:10FE9800356E8A0E346E560EE82EFED7342EFCD7F9
:10FEA800352EFAD7374A382A38BE64EF7FF03850F3
:10FEB80009E1020E375CD8A064EF7FF066EF7FF0AF
:10FEC80034EF7FF022EF7FF0030E3D183E10D8A4E8
:10FED80070EF7FF072EF7FF0AAEF7FF0000E3A6EBE
:10FEE800000E396E210E2F6E000E306E7BEC7DF009
:10FEF800030E356E8A0E346E560EE82EFED7342E5B
:10FF0800FCD7352EFAD7210E2F6E000E306E67EC17
:10FF18007DF0030E356E8A0E346E560EE82EFED72F
:10FF2800342EFCD7352EFAD7394A3A2A3ABEA6EFEC
:10FF38007FF03A5009E1030E395CD8A0A6EF7FF0B4
:10FF4800A8EF7FF076EF7FF022EF7FF0040E3D18E8
:10FF58003E10D8A4B2EF7FF0B4EF7FF0D3EF7FF07C
:10FF68001F0E2F6E000E306E7BEC7DF0200E2F6E74
:10FF7800000E306E7BEC7DF0210E2F6E000E306E81
:10FF88007BEC7DF0060E356E130E346EAE0EE82E49
:10FF9800FED7342EFCD7352EFAD722EF7FF0050E88
:10FFA8003D183E10D8A4DBEF7FF0DDEF7FF0FCEFCB
:10FFB8007FF01F0E2F6E000E306E67EC7DF0200E66
:10FFC8002F6E000E306E67EC7DF0210E2F6E000E46
:10FFD800306E67EC7DF0060E356E130E346EAE0E85
:10FFE800E82EFED7342EFCD7352EFAD7E4EF7EF074
:08FFF800E8EF7EF000EF00F0DD
:020000040020DA
:08000000FFFFFFFFFFFFFFFF00
:020000040030CA
:0E000000FF071F1FFF8B85FF0FC00FE00F4093
:00000001FF
